{
	"contracts/ExampleString.sol": {
		"ExampleString": {
			"abi": [
				{
					"inputs": [
						{
							"internalType": "string",
							"name": "_mystring",
							"type": "string"
						}
					],
					"name": "compareMyString",
					"outputs": [
						{
							"internalType": "bool",
							"name": "",
							"type": "bool"
						}
					],
					"stateMutability": "view",
					"type": "function"
				},
				{
					"inputs": [],
					"name": "myString",
					"outputs": [
						{
							"internalType": "string",
							"name": "",
							"type": "string"
						}
					],
					"stateMutability": "view",
					"type": "function"
				},
				{
					"inputs": [
						{
							"internalType": "string",
							"name": "_mystring",
							"type": "string"
						}
					],
					"name": "setMyString",
					"outputs": [],
					"stateMutability": "nonpayable",
					"type": "function"
				}
			],
			"devdoc": {
				"kind": "dev",
				"methods": {},
				"version": 1
			},
			"evm": {
				"assembly": "    /* \"contracts/ExampleString.sol\":57:413  contract ExampleString{... */\n  mstore(0x40, 0x80)\n    /* \"contracts/ExampleString.sol\":85:127  string public myString  = \"Hello Neighbor\" */\n  mload(0x40)\n  dup1\n  0x40\n  add\n  0x40\n  mstore\n  dup1\n  0x0e\n  dup2\n  mstore\n  0x20\n  add\n  0x48656c6c6f204e65696768626f72000000000000000000000000000000000000\n  dup2\n  mstore\n  pop\n  0x00\n  swap1\n  dup1\n  mload\n  swap1\n  0x20\n  add\n  swap1\n  tag_1\n  swap3\n  swap2\n  swap1\n  tag_2\n  jump\t// in\ntag_1:\n  pop\n    /* \"contracts/ExampleString.sol\":57:413  contract ExampleString{... */\n  callvalue\n  dup1\n  iszero\n  tag_3\n  jumpi\n  0x00\n  dup1\n  revert\ntag_3:\n  pop\n  jump(tag_4)\ntag_2:\n  dup3\n  dup1\n  sload\n  tag_5\n  swap1\n  tag_6\n  jump\t// in\ntag_5:\n  swap1\n  0x00\n  mstore\n  keccak256(0x00, 0x20)\n  swap1\n  0x1f\n  add\n  0x20\n  swap1\n  div\n  dup2\n  add\n  swap3\n  dup3\n  tag_8\n  jumpi\n  0x00\n  dup6\n  sstore\n  jump(tag_7)\ntag_8:\n  dup3\n  0x1f\n  lt\n  tag_9\n  jumpi\n  dup1\n  mload\n  not(0xff)\n  and\n  dup4\n  dup1\n  add\n  or\n  dup6\n  sstore\n  jump(tag_7)\ntag_9:\n  dup3\n  dup1\n  add\n  0x01\n  add\n  dup6\n  sstore\n  dup3\n  iszero\n  tag_7\n  jumpi\n  swap2\n  dup3\n  add\ntag_10:\n  dup3\n  dup2\n  gt\n  iszero\n  tag_11\n  jumpi\n  dup3\n  mload\n  dup3\n  sstore\n  swap2\n  0x20\n  add\n  swap2\n  swap1\n  0x01\n  add\n  swap1\n  jump(tag_10)\ntag_11:\ntag_7:\n  pop\n  swap1\n  pop\n  tag_12\n  swap2\n  swap1\n  tag_13\n  jump\t// in\ntag_12:\n  pop\n  swap1\n  jump\t// out\ntag_13:\ntag_14:\n  dup1\n  dup3\n  gt\n  iszero\n  tag_15\n  jumpi\n  0x00\n  dup2\n  0x00\n  swap1\n  sstore\n  pop\n  0x01\n  add\n  jump(tag_14)\ntag_15:\n  pop\n  swap1\n  jump\t// out\n    /* \"#utility.yul\":7:187   */\ntag_16:\n    /* \"#utility.yul\":55:132   */\n  0x4e487b7100000000000000000000000000000000000000000000000000000000\n    /* \"#utility.yul\":52:53   */\n  0x00\n    /* \"#utility.yul\":45:133   */\n  mstore\n    /* \"#utility.yul\":152:156   */\n  0x22\n    /* \"#utility.yul\":149:150   */\n  0x04\n    /* \"#utility.yul\":142:157   */\n  mstore\n    /* \"#utility.yul\":176:180   */\n  0x24\n    /* \"#utility.yul\":173:174   */\n  0x00\n    /* \"#utility.yul\":166:181   */\n  revert\n    /* \"#utility.yul\":193:513   */\ntag_6:\n    /* \"#utility.yul\":237:243   */\n  0x00\n    /* \"#utility.yul\":274:275   */\n  0x02\n    /* \"#utility.yul\":268:272   */\n  dup3\n    /* \"#utility.yul\":264:276   */\n  div\n    /* \"#utility.yul\":254:276   */\n  swap1\n  pop\n    /* \"#utility.yul\":321:322   */\n  0x01\n    /* \"#utility.yul\":315:319   */\n  dup3\n    /* \"#utility.yul\":311:323   */\n  and\n    /* \"#utility.yul\":342:360   */\n  dup1\n    /* \"#utility.yul\":332:413   */\n  tag_20\n  jumpi\n    /* \"#utility.yul\":398:402   */\n  0x7f\n    /* \"#utility.yul\":390:396   */\n  dup3\n    /* \"#utility.yul\":386:403   */\n  and\n    /* \"#utility.yul\":376:403   */\n  swap2\n  pop\n    /* \"#utility.yul\":332:413   */\ntag_20:\n    /* \"#utility.yul\":460:462   */\n  0x20\n    /* \"#utility.yul\":452:458   */\n  dup3\n    /* \"#utility.yul\":449:463   */\n  lt\n    /* \"#utility.yul\":429:447   */\n  dup2\n    /* \"#utility.yul\":426:464   */\n  sub\n    /* \"#utility.yul\":423:507   */\n  tag_21\n  jumpi\n    /* \"#utility.yul\":479:497   */\n  tag_22\n  tag_16\n  jump\t// in\ntag_22:\n    /* \"#utility.yul\":423:507   */\ntag_21:\n    /* \"#utility.yul\":244:513   */\n  pop\n    /* \"#utility.yul\":193:513   */\n  swap2\n  swap1\n  pop\n  jump\t// out\n    /* \"contracts/ExampleString.sol\":57:413  contract ExampleString{... */\ntag_4:\n  dataSize(sub_0)\n  dup1\n  dataOffset(sub_0)\n  0x00\n  codecopy\n  0x00\n  return\nstop\n\nsub_0: assembly {\n        /* \"contracts/ExampleString.sol\":57:413  contract ExampleString{... */\n      mstore(0x40, 0x80)\n      callvalue\n      dup1\n      iszero\n      tag_1\n      jumpi\n      0x00\n      dup1\n      revert\n    tag_1:\n      pop\n      jumpi(tag_2, lt(calldatasize, 0x04))\n      shr(0xe0, calldataload(0x00))\n      dup1\n      0x046b22ac\n      eq\n      tag_3\n      jumpi\n      dup1\n      0x492bfa18\n      eq\n      tag_4\n      jumpi\n      dup1\n      0x82180568\n      eq\n      tag_5\n      jumpi\n    tag_2:\n      0x00\n      dup1\n      revert\n        /* \"contracts/ExampleString.sol\":230:411  function compareMyString(string memory _mystring) public  view  returns (bool){... */\n    tag_3:\n      tag_6\n      0x04\n      dup1\n      calldatasize\n      sub\n      dup2\n      add\n      swap1\n      tag_7\n      swap2\n      swap1\n      tag_8\n      jump\t// in\n    tag_7:\n      tag_9\n      jump\t// in\n    tag_6:\n      mload(0x40)\n      tag_10\n      swap2\n      swap1\n      tag_11\n      jump\t// in\n    tag_10:\n      mload(0x40)\n      dup1\n      swap2\n      sub\n      swap1\n      return\n        /* \"contracts/ExampleString.sol\":85:127  string public myString  = \"Hello Neighbor\" */\n    tag_4:\n      tag_12\n      tag_13\n      jump\t// in\n    tag_12:\n      mload(0x40)\n      tag_14\n      swap2\n      swap1\n      tag_15\n      jump\t// in\n    tag_14:\n      mload(0x40)\n      dup1\n      swap2\n      sub\n      swap1\n      return\n        /* \"contracts/ExampleString.sol\":133:224  function setMyString(string memory _mystring) public  {... */\n    tag_5:\n      tag_16\n      0x04\n      dup1\n      calldatasize\n      sub\n      dup2\n      add\n      swap1\n      tag_17\n      swap2\n      swap1\n      tag_8\n      jump\t// in\n    tag_17:\n      tag_18\n      jump\t// in\n    tag_16:\n      stop\n        /* \"contracts/ExampleString.sol\":230:411  function compareMyString(string memory _mystring) public  view  returns (bool){... */\n    tag_9:\n        /* \"contracts/ExampleString.sol\":303:307  bool */\n      0x00\n        /* \"contracts/ExampleString.sol\":393:402  _mystring */\n      dup2\n        /* \"contracts/ExampleString.sol\":376:403  abi.encodePacked(_mystring) */\n      add(0x20, mload(0x40))\n      tag_20\n      swap2\n      swap1\n      tag_21\n      jump\t// in\n    tag_20:\n      mload(0x40)\n      0x20\n      dup2\n      dup4\n      sub\n      sub\n      dup2\n      mstore\n      swap1\n      0x40\n      mstore\n        /* \"contracts/ExampleString.sol\":366:404  keccak256(abi.encodePacked(_mystring)) */\n      dup1\n      mload\n      swap1\n      0x20\n      add\n      keccak256\n        /* \"contracts/ExampleString.sol\":352:360  myString */\n      0x00\n        /* \"contracts/ExampleString.sol\":335:361  abi.encodePacked(myString) */\n      add(0x20, mload(0x40))\n      tag_22\n      swap2\n      swap1\n      tag_23\n      jump\t// in\n    tag_22:\n      mload(0x40)\n      0x20\n      dup2\n      dup4\n      sub\n      sub\n      dup2\n      mstore\n      swap1\n      0x40\n      mstore\n        /* \"contracts/ExampleString.sol\":325:362  keccak256(abi.encodePacked(myString)) */\n      dup1\n      mload\n      swap1\n      0x20\n      add\n      keccak256\n        /* \"contracts/ExampleString.sol\":325:404  keccak256(abi.encodePacked(myString)) == keccak256(abi.encodePacked(_mystring)) */\n      eq\n        /* \"contracts/ExampleString.sol\":318:404  return keccak256(abi.encodePacked(myString)) == keccak256(abi.encodePacked(_mystring)) */\n      swap1\n      pop\n        /* \"contracts/ExampleString.sol\":230:411  function compareMyString(string memory _mystring) public  view  returns (bool){... */\n      swap2\n      swap1\n      pop\n      jump\t// out\n        /* \"contracts/ExampleString.sol\":85:127  string public myString  = \"Hello Neighbor\" */\n    tag_13:\n      0x00\n      dup1\n      sload\n      tag_24\n      swap1\n      tag_25\n      jump\t// in\n    tag_24:\n      dup1\n      0x1f\n      add\n      0x20\n      dup1\n      swap2\n      div\n      mul\n      0x20\n      add\n      mload(0x40)\n      swap1\n      dup2\n      add\n      0x40\n      mstore\n      dup1\n      swap3\n      swap2\n      swap1\n      dup2\n      dup2\n      mstore\n      0x20\n      add\n      dup3\n      dup1\n      sload\n      tag_26\n      swap1\n      tag_25\n      jump\t// in\n    tag_26:\n      dup1\n      iszero\n      tag_27\n      jumpi\n      dup1\n      0x1f\n      lt\n      tag_28\n      jumpi\n      0x0100\n      dup1\n      dup4\n      sload\n      div\n      mul\n      dup4\n      mstore\n      swap2\n      0x20\n      add\n      swap2\n      jump(tag_27)\n    tag_28:\n      dup3\n      add\n      swap2\n      swap1\n      0x00\n      mstore\n      keccak256(0x00, 0x20)\n      swap1\n    tag_29:\n      dup2\n      sload\n      dup2\n      mstore\n      swap1\n      0x01\n      add\n      swap1\n      0x20\n      add\n      dup1\n      dup4\n      gt\n      tag_29\n      jumpi\n      dup3\n      swap1\n      sub\n      0x1f\n      and\n      dup3\n      add\n      swap2\n    tag_27:\n      pop\n      pop\n      pop\n      pop\n      pop\n      dup2\n      jump\t// out\n        /* \"contracts/ExampleString.sol\":133:224  function setMyString(string memory _mystring) public  {... */\n    tag_18:\n        /* \"contracts/ExampleString.sol\":208:217  _mystring */\n      dup1\n        /* \"contracts/ExampleString.sol\":197:205  myString */\n      0x00\n        /* \"contracts/ExampleString.sol\":197:217  myString = _mystring */\n      swap1\n      dup1\n      mload\n      swap1\n      0x20\n      add\n      swap1\n      tag_31\n      swap3\n      swap2\n      swap1\n      tag_32\n      jump\t// in\n    tag_31:\n      pop\n        /* \"contracts/ExampleString.sol\":133:224  function setMyString(string memory _mystring) public  {... */\n      pop\n      jump\t// out\n    tag_32:\n      dup3\n      dup1\n      sload\n      tag_33\n      swap1\n      tag_25\n      jump\t// in\n    tag_33:\n      swap1\n      0x00\n      mstore\n      keccak256(0x00, 0x20)\n      swap1\n      0x1f\n      add\n      0x20\n      swap1\n      div\n      dup2\n      add\n      swap3\n      dup3\n      tag_35\n      jumpi\n      0x00\n      dup6\n      sstore\n      jump(tag_34)\n    tag_35:\n      dup3\n      0x1f\n      lt\n      tag_36\n      jumpi\n      dup1\n      mload\n      not(0xff)\n      and\n      dup4\n      dup1\n      add\n      or\n      dup6\n      sstore\n      jump(tag_34)\n    tag_36:\n      dup3\n      dup1\n      add\n      0x01\n      add\n      dup6\n      sstore\n      dup3\n      iszero\n      tag_34\n      jumpi\n      swap2\n      dup3\n      add\n    tag_37:\n      dup3\n      dup2\n      gt\n      iszero\n      tag_38\n      jumpi\n      dup3\n      mload\n      dup3\n      sstore\n      swap2\n      0x20\n      add\n      swap2\n      swap1\n      0x01\n      add\n      swap1\n      jump(tag_37)\n    tag_38:\n    tag_34:\n      pop\n      swap1\n      pop\n      tag_39\n      swap2\n      swap1\n      tag_40\n      jump\t// in\n    tag_39:\n      pop\n      swap1\n      jump\t// out\n    tag_40:\n    tag_41:\n      dup1\n      dup3\n      gt\n      iszero\n      tag_42\n      jumpi\n      0x00\n      dup2\n      0x00\n      swap1\n      sstore\n      pop\n      0x01\n      add\n      jump(tag_41)\n    tag_42:\n      pop\n      swap1\n      jump\t// out\n        /* \"#utility.yul\":7:82   */\n    tag_43:\n        /* \"#utility.yul\":40:46   */\n      0x00\n        /* \"#utility.yul\":73:75   */\n      0x40\n        /* \"#utility.yul\":67:76   */\n      mload\n        /* \"#utility.yul\":57:76   */\n      swap1\n      pop\n        /* \"#utility.yul\":7:82   */\n      swap1\n      jump\t// out\n        /* \"#utility.yul\":88:205   */\n    tag_44:\n        /* \"#utility.yul\":197:198   */\n      0x00\n        /* \"#utility.yul\":194:195   */\n      dup1\n        /* \"#utility.yul\":187:199   */\n      revert\n        /* \"#utility.yul\":211:328   */\n    tag_45:\n        /* \"#utility.yul\":320:321   */\n      0x00\n        /* \"#utility.yul\":317:318   */\n      dup1\n        /* \"#utility.yul\":310:322   */\n      revert\n        /* \"#utility.yul\":334:451   */\n    tag_46:\n        /* \"#utility.yul\":443:444   */\n      0x00\n        /* \"#utility.yul\":440:441   */\n      dup1\n        /* \"#utility.yul\":433:445   */\n      revert\n        /* \"#utility.yul\":457:574   */\n    tag_47:\n        /* \"#utility.yul\":566:567   */\n      0x00\n        /* \"#utility.yul\":563:564   */\n      dup1\n        /* \"#utility.yul\":556:568   */\n      revert\n        /* \"#utility.yul\":580:682   */\n    tag_48:\n        /* \"#utility.yul\":621:627   */\n      0x00\n        /* \"#utility.yul\":672:674   */\n      0x1f\n        /* \"#utility.yul\":668:675   */\n      not\n        /* \"#utility.yul\":663:665   */\n      0x1f\n        /* \"#utility.yul\":656:661   */\n      dup4\n        /* \"#utility.yul\":652:666   */\n      add\n        /* \"#utility.yul\":648:676   */\n      and\n        /* \"#utility.yul\":638:676   */\n      swap1\n      pop\n        /* \"#utility.yul\":580:682   */\n      swap2\n      swap1\n      pop\n      jump\t// out\n        /* \"#utility.yul\":688:868   */\n    tag_49:\n        /* \"#utility.yul\":736:813   */\n      0x4e487b7100000000000000000000000000000000000000000000000000000000\n        /* \"#utility.yul\":733:734   */\n      0x00\n        /* \"#utility.yul\":726:814   */\n      mstore\n        /* \"#utility.yul\":833:837   */\n      0x41\n        /* \"#utility.yul\":830:831   */\n      0x04\n        /* \"#utility.yul\":823:838   */\n      mstore\n        /* \"#utility.yul\":857:861   */\n      0x24\n        /* \"#utility.yul\":854:855   */\n      0x00\n        /* \"#utility.yul\":847:862   */\n      revert\n        /* \"#utility.yul\":874:1155   */\n    tag_50:\n        /* \"#utility.yul\":957:984   */\n      tag_76\n        /* \"#utility.yul\":979:983   */\n      dup3\n        /* \"#utility.yul\":957:984   */\n      tag_48\n      jump\t// in\n    tag_76:\n        /* \"#utility.yul\":949:955   */\n      dup2\n        /* \"#utility.yul\":945:985   */\n      add\n        /* \"#utility.yul\":1087:1093   */\n      dup2\n        /* \"#utility.yul\":1075:1085   */\n      dup2\n        /* \"#utility.yul\":1072:1094   */\n      lt\n        /* \"#utility.yul\":1051:1069   */\n      0xffffffffffffffff\n        /* \"#utility.yul\":1039:1049   */\n      dup3\n        /* \"#utility.yul\":1036:1070   */\n      gt\n        /* \"#utility.yul\":1033:1095   */\n      or\n        /* \"#utility.yul\":1030:1118   */\n      iszero\n      tag_77\n      jumpi\n        /* \"#utility.yul\":1098:1116   */\n      tag_78\n      tag_49\n      jump\t// in\n    tag_78:\n        /* \"#utility.yul\":1030:1118   */\n    tag_77:\n        /* \"#utility.yul\":1138:1148   */\n      dup1\n        /* \"#utility.yul\":1134:1136   */\n      0x40\n        /* \"#utility.yul\":1127:1149   */\n      mstore\n        /* \"#utility.yul\":917:1155   */\n      pop\n        /* \"#utility.yul\":874:1155   */\n      pop\n      pop\n      jump\t// out\n        /* \"#utility.yul\":1161:1290   */\n    tag_51:\n        /* \"#utility.yul\":1195:1201   */\n      0x00\n        /* \"#utility.yul\":1222:1242   */\n      tag_80\n      tag_43\n      jump\t// in\n    tag_80:\n        /* \"#utility.yul\":1212:1242   */\n      swap1\n      pop\n        /* \"#utility.yul\":1251:1284   */\n      tag_81\n        /* \"#utility.yul\":1279:1283   */\n      dup3\n        /* \"#utility.yul\":1271:1277   */\n      dup3\n        /* \"#utility.yul\":1251:1284   */\n      tag_50\n      jump\t// in\n    tag_81:\n        /* \"#utility.yul\":1161:1290   */\n      swap2\n      swap1\n      pop\n      jump\t// out\n        /* \"#utility.yul\":1296:1604   */\n    tag_52:\n        /* \"#utility.yul\":1358:1362   */\n      0x00\n        /* \"#utility.yul\":1448:1466   */\n      0xffffffffffffffff\n        /* \"#utility.yul\":1440:1446   */\n      dup3\n        /* \"#utility.yul\":1437:1467   */\n      gt\n        /* \"#utility.yul\":1434:1490   */\n      iszero\n      tag_83\n      jumpi\n        /* \"#utility.yul\":1470:1488   */\n      tag_84\n      tag_49\n      jump\t// in\n    tag_84:\n        /* \"#utility.yul\":1434:1490   */\n    tag_83:\n        /* \"#utility.yul\":1508:1537   */\n      tag_85\n        /* \"#utility.yul\":1530:1536   */\n      dup3\n        /* \"#utility.yul\":1508:1537   */\n      tag_48\n      jump\t// in\n    tag_85:\n        /* \"#utility.yul\":1500:1537   */\n      swap1\n      pop\n        /* \"#utility.yul\":1592:1596   */\n      0x20\n        /* \"#utility.yul\":1586:1590   */\n      dup2\n        /* \"#utility.yul\":1582:1597   */\n      add\n        /* \"#utility.yul\":1574:1597   */\n      swap1\n      pop\n        /* \"#utility.yul\":1296:1604   */\n      swap2\n      swap1\n      pop\n      jump\t// out\n        /* \"#utility.yul\":1610:1764   */\n    tag_53:\n        /* \"#utility.yul\":1694:1700   */\n      dup3\n        /* \"#utility.yul\":1689:1692   */\n      dup2\n        /* \"#utility.yul\":1684:1687   */\n      dup4\n        /* \"#utility.yul\":1671:1701   */\n      calldatacopy\n        /* \"#utility.yul\":1756:1757   */\n      0x00\n        /* \"#utility.yul\":1747:1753   */\n      dup4\n        /* \"#utility.yul\":1742:1745   */\n      dup4\n        /* \"#utility.yul\":1738:1754   */\n      add\n        /* \"#utility.yul\":1731:1758   */\n      mstore\n        /* \"#utility.yul\":1610:1764   */\n      pop\n      pop\n      pop\n      jump\t// out\n        /* \"#utility.yul\":1770:2182   */\n    tag_54:\n        /* \"#utility.yul\":1848:1853   */\n      0x00\n        /* \"#utility.yul\":1873:1939   */\n      tag_88\n        /* \"#utility.yul\":1889:1938   */\n      tag_89\n        /* \"#utility.yul\":1931:1937   */\n      dup5\n        /* \"#utility.yul\":1889:1938   */\n      tag_52\n      jump\t// in\n    tag_89:\n        /* \"#utility.yul\":1873:1939   */\n      tag_51\n      jump\t// in\n    tag_88:\n        /* \"#utility.yul\":1864:1939   */\n      swap1\n      pop\n        /* \"#utility.yul\":1962:1968   */\n      dup3\n        /* \"#utility.yul\":1955:1960   */\n      dup2\n        /* \"#utility.yul\":1948:1969   */\n      mstore\n        /* \"#utility.yul\":2000:2004   */\n      0x20\n        /* \"#utility.yul\":1993:1998   */\n      dup2\n        /* \"#utility.yul\":1989:2005   */\n      add\n        /* \"#utility.yul\":2038:2041   */\n      dup5\n        /* \"#utility.yul\":2029:2035   */\n      dup5\n        /* \"#utility.yul\":2024:2027   */\n      dup5\n        /* \"#utility.yul\":2020:2036   */\n      add\n        /* \"#utility.yul\":2017:2042   */\n      gt\n        /* \"#utility.yul\":2014:2126   */\n      iszero\n      tag_90\n      jumpi\n        /* \"#utility.yul\":2045:2124   */\n      tag_91\n      tag_47\n      jump\t// in\n    tag_91:\n        /* \"#utility.yul\":2014:2126   */\n    tag_90:\n        /* \"#utility.yul\":2135:2176   */\n      tag_92\n        /* \"#utility.yul\":2169:2175   */\n      dup5\n        /* \"#utility.yul\":2164:2167   */\n      dup3\n        /* \"#utility.yul\":2159:2162   */\n      dup6\n        /* \"#utility.yul\":2135:2176   */\n      tag_53\n      jump\t// in\n    tag_92:\n        /* \"#utility.yul\":1854:2182   */\n      pop\n        /* \"#utility.yul\":1770:2182   */\n      swap4\n      swap3\n      pop\n      pop\n      pop\n      jump\t// out\n        /* \"#utility.yul\":2202:2542   */\n    tag_55:\n        /* \"#utility.yul\":2258:2263   */\n      0x00\n        /* \"#utility.yul\":2307:2310   */\n      dup3\n        /* \"#utility.yul\":2300:2304   */\n      0x1f\n        /* \"#utility.yul\":2292:2298   */\n      dup4\n        /* \"#utility.yul\":2288:2305   */\n      add\n        /* \"#utility.yul\":2284:2311   */\n      slt\n        /* \"#utility.yul\":2274:2396   */\n      tag_94\n      jumpi\n        /* \"#utility.yul\":2315:2394   */\n      tag_95\n      tag_46\n      jump\t// in\n    tag_95:\n        /* \"#utility.yul\":2274:2396   */\n    tag_94:\n        /* \"#utility.yul\":2432:2438   */\n      dup2\n        /* \"#utility.yul\":2419:2439   */\n      calldataload\n        /* \"#utility.yul\":2457:2536   */\n      tag_96\n        /* \"#utility.yul\":2532:2535   */\n      dup5\n        /* \"#utility.yul\":2524:2530   */\n      dup3\n        /* \"#utility.yul\":2517:2521   */\n      0x20\n        /* \"#utility.yul\":2509:2515   */\n      dup7\n        /* \"#utility.yul\":2505:2522   */\n      add\n        /* \"#utility.yul\":2457:2536   */\n      tag_54\n      jump\t// in\n    tag_96:\n        /* \"#utility.yul\":2448:2536   */\n      swap2\n      pop\n        /* \"#utility.yul\":2264:2542   */\n      pop\n        /* \"#utility.yul\":2202:2542   */\n      swap3\n      swap2\n      pop\n      pop\n      jump\t// out\n        /* \"#utility.yul\":2548:3057   */\n    tag_8:\n        /* \"#utility.yul\":2617:2623   */\n      0x00\n        /* \"#utility.yul\":2666:2668   */\n      0x20\n        /* \"#utility.yul\":2654:2663   */\n      dup3\n        /* \"#utility.yul\":2645:2652   */\n      dup5\n        /* \"#utility.yul\":2641:2664   */\n      sub\n        /* \"#utility.yul\":2637:2669   */\n      slt\n        /* \"#utility.yul\":2634:2753   */\n      iszero\n      tag_98\n      jumpi\n        /* \"#utility.yul\":2672:2751   */\n      tag_99\n      tag_44\n      jump\t// in\n    tag_99:\n        /* \"#utility.yul\":2634:2753   */\n    tag_98:\n        /* \"#utility.yul\":2820:2821   */\n      0x00\n        /* \"#utility.yul\":2809:2818   */\n      dup3\n        /* \"#utility.yul\":2805:2822   */\n      add\n        /* \"#utility.yul\":2792:2823   */\n      calldataload\n        /* \"#utility.yul\":2850:2868   */\n      0xffffffffffffffff\n        /* \"#utility.yul\":2842:2848   */\n      dup2\n        /* \"#utility.yul\":2839:2869   */\n      gt\n        /* \"#utility.yul\":2836:2953   */\n      iszero\n      tag_100\n      jumpi\n        /* \"#utility.yul\":2872:2951   */\n      tag_101\n      tag_45\n      jump\t// in\n    tag_101:\n        /* \"#utility.yul\":2836:2953   */\n    tag_100:\n        /* \"#utility.yul\":2977:3040   */\n      tag_102\n        /* \"#utility.yul\":3032:3039   */\n      dup5\n        /* \"#utility.yul\":3023:3029   */\n      dup3\n        /* \"#utility.yul\":3012:3021   */\n      dup6\n        /* \"#utility.yul\":3008:3030   */\n      add\n        /* \"#utility.yul\":2977:3040   */\n      tag_55\n      jump\t// in\n    tag_102:\n        /* \"#utility.yul\":2967:3040   */\n      swap2\n      pop\n        /* \"#utility.yul\":2763:3050   */\n      pop\n        /* \"#utility.yul\":2548:3057   */\n      swap3\n      swap2\n      pop\n      pop\n      jump\t// out\n        /* \"#utility.yul\":3063:3153   */\n    tag_56:\n        /* \"#utility.yul\":3097:3104   */\n      0x00\n        /* \"#utility.yul\":3140:3145   */\n      dup2\n        /* \"#utility.yul\":3133:3146   */\n      iszero\n        /* \"#utility.yul\":3126:3147   */\n      iszero\n        /* \"#utility.yul\":3115:3147   */\n      swap1\n      pop\n        /* \"#utility.yul\":3063:3153   */\n      swap2\n      swap1\n      pop\n      jump\t// out\n        /* \"#utility.yul\":3159:3268   */\n    tag_57:\n        /* \"#utility.yul\":3240:3261   */\n      tag_105\n        /* \"#utility.yul\":3255:3260   */\n      dup2\n        /* \"#utility.yul\":3240:3261   */\n      tag_56\n      jump\t// in\n    tag_105:\n        /* \"#utility.yul\":3235:3238   */\n      dup3\n        /* \"#utility.yul\":3228:3262   */\n      mstore\n        /* \"#utility.yul\":3159:3268   */\n      pop\n      pop\n      jump\t// out\n        /* \"#utility.yul\":3274:3484   */\n    tag_11:\n        /* \"#utility.yul\":3361:3365   */\n      0x00\n        /* \"#utility.yul\":3399:3401   */\n      0x20\n        /* \"#utility.yul\":3388:3397   */\n      dup3\n        /* \"#utility.yul\":3384:3402   */\n      add\n        /* \"#utility.yul\":3376:3402   */\n      swap1\n      pop\n        /* \"#utility.yul\":3412:3477   */\n      tag_107\n        /* \"#utility.yul\":3474:3475   */\n      0x00\n        /* \"#utility.yul\":3463:3472   */\n      dup4\n        /* \"#utility.yul\":3459:3476   */\n      add\n        /* \"#utility.yul\":3450:3456   */\n      dup5\n        /* \"#utility.yul\":3412:3477   */\n      tag_57\n      jump\t// in\n    tag_107:\n        /* \"#utility.yul\":3274:3484   */\n      swap3\n      swap2\n      pop\n      pop\n      jump\t// out\n        /* \"#utility.yul\":3490:3589   */\n    tag_58:\n        /* \"#utility.yul\":3542:3548   */\n      0x00\n        /* \"#utility.yul\":3576:3581   */\n      dup2\n        /* \"#utility.yul\":3570:3582   */\n      mload\n        /* \"#utility.yul\":3560:3582   */\n      swap1\n      pop\n        /* \"#utility.yul\":3490:3589   */\n      swap2\n      swap1\n      pop\n      jump\t// out\n        /* \"#utility.yul\":3595:3764   */\n    tag_59:\n        /* \"#utility.yul\":3679:3690   */\n      0x00\n        /* \"#utility.yul\":3713:3719   */\n      dup3\n        /* \"#utility.yul\":3708:3711   */\n      dup3\n        /* \"#utility.yul\":3701:3720   */\n      mstore\n        /* \"#utility.yul\":3753:3757   */\n      0x20\n        /* \"#utility.yul\":3748:3751   */\n      dup3\n        /* \"#utility.yul\":3744:3758   */\n      add\n        /* \"#utility.yul\":3729:3758   */\n      swap1\n      pop\n        /* \"#utility.yul\":3595:3764   */\n      swap3\n      swap2\n      pop\n      pop\n      jump\t// out\n        /* \"#utility.yul\":3770:4077   */\n    tag_60:\n        /* \"#utility.yul\":3838:3839   */\n      0x00\n        /* \"#utility.yul\":3848:3961   */\n    tag_111:\n        /* \"#utility.yul\":3862:3868   */\n      dup4\n        /* \"#utility.yul\":3859:3860   */\n      dup2\n        /* \"#utility.yul\":3856:3869   */\n      lt\n        /* \"#utility.yul\":3848:3961   */\n      iszero\n      tag_113\n      jumpi\n        /* \"#utility.yul\":3947:3948   */\n      dup1\n        /* \"#utility.yul\":3942:3945   */\n      dup3\n        /* \"#utility.yul\":3938:3949   */\n      add\n        /* \"#utility.yul\":3932:3950   */\n      mload\n        /* \"#utility.yul\":3928:3929   */\n      dup2\n        /* \"#utility.yul\":3923:3926   */\n      dup5\n        /* \"#utility.yul\":3919:3930   */\n      add\n        /* \"#utility.yul\":3912:3951   */\n      mstore\n        /* \"#utility.yul\":3884:3886   */\n      0x20\n        /* \"#utility.yul\":3881:3882   */\n      dup2\n        /* \"#utility.yul\":3877:3887   */\n      add\n        /* \"#utility.yul\":3872:3887   */\n      swap1\n      pop\n        /* \"#utility.yul\":3848:3961   */\n      jump(tag_111)\n    tag_113:\n        /* \"#utility.yul\":3979:3985   */\n      dup4\n        /* \"#utility.yul\":3976:3977   */\n      dup2\n        /* \"#utility.yul\":3973:3986   */\n      gt\n        /* \"#utility.yul\":3970:4071   */\n      iszero\n      tag_114\n      jumpi\n        /* \"#utility.yul\":4059:4060   */\n      0x00\n        /* \"#utility.yul\":4050:4056   */\n      dup5\n        /* \"#utility.yul\":4045:4048   */\n      dup5\n        /* \"#utility.yul\":4041:4057   */\n      add\n        /* \"#utility.yul\":4034:4061   */\n      mstore\n        /* \"#utility.yul\":3970:4071   */\n    tag_114:\n        /* \"#utility.yul\":3819:4077   */\n      pop\n        /* \"#utility.yul\":3770:4077   */\n      pop\n      pop\n      pop\n      jump\t// out\n        /* \"#utility.yul\":4083:4447   */\n    tag_61:\n        /* \"#utility.yul\":4171:4174   */\n      0x00\n        /* \"#utility.yul\":4199:4238   */\n      tag_116\n        /* \"#utility.yul\":4232:4237   */\n      dup3\n        /* \"#utility.yul\":4199:4238   */\n      tag_58\n      jump\t// in\n    tag_116:\n        /* \"#utility.yul\":4254:4325   */\n      tag_117\n        /* \"#utility.yul\":4318:4324   */\n      dup2\n        /* \"#utility.yul\":4313:4316   */\n      dup6\n        /* \"#utility.yul\":4254:4325   */\n      tag_59\n      jump\t// in\n    tag_117:\n        /* \"#utility.yul\":4247:4325   */\n      swap4\n      pop\n        /* \"#utility.yul\":4334:4386   */\n      tag_118\n        /* \"#utility.yul\":4379:4385   */\n      dup2\n        /* \"#utility.yul\":4374:4377   */\n      dup6\n        /* \"#utility.yul\":4367:4371   */\n      0x20\n        /* \"#utility.yul\":4360:4365   */\n      dup7\n        /* \"#utility.yul\":4356:4372   */\n      add\n        /* \"#utility.yul\":4334:4386   */\n      tag_60\n      jump\t// in\n    tag_118:\n        /* \"#utility.yul\":4411:4440   */\n      tag_119\n        /* \"#utility.yul\":4433:4439   */\n      dup2\n        /* \"#utility.yul\":4411:4440   */\n      tag_48\n      jump\t// in\n    tag_119:\n        /* \"#utility.yul\":4406:4409   */\n      dup5\n        /* \"#utility.yul\":4402:4441   */\n      add\n        /* \"#utility.yul\":4395:4441   */\n      swap2\n      pop\n        /* \"#utility.yul\":4175:4447   */\n      pop\n        /* \"#utility.yul\":4083:4447   */\n      swap3\n      swap2\n      pop\n      pop\n      jump\t// out\n        /* \"#utility.yul\":4453:4766   */\n    tag_15:\n        /* \"#utility.yul\":4566:4570   */\n      0x00\n        /* \"#utility.yul\":4604:4606   */\n      0x20\n        /* \"#utility.yul\":4593:4602   */\n      dup3\n        /* \"#utility.yul\":4589:4607   */\n      add\n        /* \"#utility.yul\":4581:4607   */\n      swap1\n      pop\n        /* \"#utility.yul\":4653:4662   */\n      dup2\n        /* \"#utility.yul\":4647:4651   */\n      dup2\n        /* \"#utility.yul\":4643:4663   */\n      sub\n        /* \"#utility.yul\":4639:4640   */\n      0x00\n        /* \"#utility.yul\":4628:4637   */\n      dup4\n        /* \"#utility.yul\":4624:4641   */\n      add\n        /* \"#utility.yul\":4617:4664   */\n      mstore\n        /* \"#utility.yul\":4681:4759   */\n      tag_121\n        /* \"#utility.yul\":4754:4758   */\n      dup2\n        /* \"#utility.yul\":4745:4751   */\n      dup5\n        /* \"#utility.yul\":4681:4759   */\n      tag_61\n      jump\t// in\n    tag_121:\n        /* \"#utility.yul\":4673:4759   */\n      swap1\n      pop\n        /* \"#utility.yul\":4453:4766   */\n      swap3\n      swap2\n      pop\n      pop\n      jump\t// out\n        /* \"#utility.yul\":4772:4920   */\n    tag_62:\n        /* \"#utility.yul\":4874:4885   */\n      0x00\n        /* \"#utility.yul\":4911:4914   */\n      dup2\n        /* \"#utility.yul\":4896:4914   */\n      swap1\n      pop\n        /* \"#utility.yul\":4772:4920   */\n      swap3\n      swap2\n      pop\n      pop\n      jump\t// out\n        /* \"#utility.yul\":4926:5303   */\n    tag_63:\n        /* \"#utility.yul\":5032:5035   */\n      0x00\n        /* \"#utility.yul\":5060:5099   */\n      tag_124\n        /* \"#utility.yul\":5093:5098   */\n      dup3\n        /* \"#utility.yul\":5060:5099   */\n      tag_58\n      jump\t// in\n    tag_124:\n        /* \"#utility.yul\":5115:5204   */\n      tag_125\n        /* \"#utility.yul\":5197:5203   */\n      dup2\n        /* \"#utility.yul\":5192:5195   */\n      dup6\n        /* \"#utility.yul\":5115:5204   */\n      tag_62\n      jump\t// in\n    tag_125:\n        /* \"#utility.yul\":5108:5204   */\n      swap4\n      pop\n        /* \"#utility.yul\":5213:5265   */\n      tag_126\n        /* \"#utility.yul\":5258:5264   */\n      dup2\n        /* \"#utility.yul\":5253:5256   */\n      dup6\n        /* \"#utility.yul\":5246:5250   */\n      0x20\n        /* \"#utility.yul\":5239:5244   */\n      dup7\n        /* \"#utility.yul\":5235:5251   */\n      add\n        /* \"#utility.yul\":5213:5265   */\n      tag_60\n      jump\t// in\n    tag_126:\n        /* \"#utility.yul\":5290:5296   */\n      dup1\n        /* \"#utility.yul\":5285:5288   */\n      dup5\n        /* \"#utility.yul\":5281:5297   */\n      add\n        /* \"#utility.yul\":5274:5297   */\n      swap2\n      pop\n        /* \"#utility.yul\":5036:5303   */\n      pop\n        /* \"#utility.yul\":4926:5303   */\n      swap3\n      swap2\n      pop\n      pop\n      jump\t// out\n        /* \"#utility.yul\":5309:5584   */\n    tag_21:\n        /* \"#utility.yul\":5441:5444   */\n      0x00\n        /* \"#utility.yul\":5463:5558   */\n      tag_128\n        /* \"#utility.yul\":5554:5557   */\n      dup3\n        /* \"#utility.yul\":5545:5551   */\n      dup5\n        /* \"#utility.yul\":5463:5558   */\n      tag_63\n      jump\t// in\n    tag_128:\n        /* \"#utility.yul\":5456:5558   */\n      swap2\n      pop\n        /* \"#utility.yul\":5575:5578   */\n      dup2\n        /* \"#utility.yul\":5568:5578   */\n      swap1\n      pop\n        /* \"#utility.yul\":5309:5584   */\n      swap3\n      swap2\n      pop\n      pop\n      jump\t// out\n        /* \"#utility.yul\":5590:5770   */\n    tag_64:\n        /* \"#utility.yul\":5638:5715   */\n      0x4e487b7100000000000000000000000000000000000000000000000000000000\n        /* \"#utility.yul\":5635:5636   */\n      0x00\n        /* \"#utility.yul\":5628:5716   */\n      mstore\n        /* \"#utility.yul\":5735:5739   */\n      0x22\n        /* \"#utility.yul\":5732:5733   */\n      0x04\n        /* \"#utility.yul\":5725:5740   */\n      mstore\n        /* \"#utility.yul\":5759:5763   */\n      0x24\n        /* \"#utility.yul\":5756:5757   */\n      0x00\n        /* \"#utility.yul\":5749:5764   */\n      revert\n        /* \"#utility.yul\":5776:6096   */\n    tag_25:\n        /* \"#utility.yul\":5820:5826   */\n      0x00\n        /* \"#utility.yul\":5857:5858   */\n      0x02\n        /* \"#utility.yul\":5851:5855   */\n      dup3\n        /* \"#utility.yul\":5847:5859   */\n      div\n        /* \"#utility.yul\":5837:5859   */\n      swap1\n      pop\n        /* \"#utility.yul\":5904:5905   */\n      0x01\n        /* \"#utility.yul\":5898:5902   */\n      dup3\n        /* \"#utility.yul\":5894:5906   */\n      and\n        /* \"#utility.yul\":5925:5943   */\n      dup1\n        /* \"#utility.yul\":5915:5996   */\n      tag_131\n      jumpi\n        /* \"#utility.yul\":5981:5985   */\n      0x7f\n        /* \"#utility.yul\":5973:5979   */\n      dup3\n        /* \"#utility.yul\":5969:5986   */\n      and\n        /* \"#utility.yul\":5959:5986   */\n      swap2\n      pop\n        /* \"#utility.yul\":5915:5996   */\n    tag_131:\n        /* \"#utility.yul\":6043:6045   */\n      0x20\n        /* \"#utility.yul\":6035:6041   */\n      dup3\n        /* \"#utility.yul\":6032:6046   */\n      lt\n        /* \"#utility.yul\":6012:6030   */\n      dup2\n        /* \"#utility.yul\":6009:6047   */\n      sub\n        /* \"#utility.yul\":6006:6090   */\n      tag_132\n      jumpi\n        /* \"#utility.yul\":6062:6080   */\n      tag_133\n      tag_64\n      jump\t// in\n    tag_133:\n        /* \"#utility.yul\":6006:6090   */\n    tag_132:\n        /* \"#utility.yul\":5827:6096   */\n      pop\n        /* \"#utility.yul\":5776:6096   */\n      swap2\n      swap1\n      pop\n      jump\t// out\n        /* \"#utility.yul\":6102:6243   */\n    tag_65:\n        /* \"#utility.yul\":6151:6155   */\n      0x00\n        /* \"#utility.yul\":6174:6177   */\n      dup2\n        /* \"#utility.yul\":6166:6177   */\n      swap1\n      pop\n        /* \"#utility.yul\":6197:6200   */\n      dup2\n        /* \"#utility.yul\":6194:6195   */\n      0x00\n        /* \"#utility.yul\":6187:6201   */\n      mstore\n        /* \"#utility.yul\":6231:6235   */\n      0x20\n        /* \"#utility.yul\":6228:6229   */\n      0x00\n        /* \"#utility.yul\":6218:6236   */\n      keccak256\n        /* \"#utility.yul\":6210:6236   */\n      swap1\n      pop\n        /* \"#utility.yul\":6102:6243   */\n      swap2\n      swap1\n      pop\n      jump\t// out\n        /* \"#utility.yul\":6273:7118   */\n    tag_66:\n        /* \"#utility.yul\":6376:6379   */\n      0x00\n        /* \"#utility.yul\":6413:6418   */\n      dup2\n        /* \"#utility.yul\":6407:6419   */\n      sload\n        /* \"#utility.yul\":6442:6478   */\n      tag_136\n        /* \"#utility.yul\":6468:6477   */\n      dup2\n        /* \"#utility.yul\":6442:6478   */\n      tag_25\n      jump\t// in\n    tag_136:\n        /* \"#utility.yul\":6494:6583   */\n      tag_137\n        /* \"#utility.yul\":6576:6582   */\n      dup2\n        /* \"#utility.yul\":6571:6574   */\n      dup7\n        /* \"#utility.yul\":6494:6583   */\n      tag_62\n      jump\t// in\n    tag_137:\n        /* \"#utility.yul\":6487:6583   */\n      swap5\n      pop\n        /* \"#utility.yul\":6614:6615   */\n      0x01\n        /* \"#utility.yul\":6603:6612   */\n      dup3\n        /* \"#utility.yul\":6599:6616   */\n      and\n        /* \"#utility.yul\":6630:6631   */\n      0x00\n        /* \"#utility.yul\":6625:6762   */\n      dup2\n      eq\n      tag_139\n      jumpi\n        /* \"#utility.yul\":6776:6777   */\n      0x01\n        /* \"#utility.yul\":6771:7112   */\n      dup2\n      eq\n      tag_140\n      jumpi\n        /* \"#utility.yul\":6592:7112   */\n      jump(tag_138)\n        /* \"#utility.yul\":6625:6762   */\n    tag_139:\n        /* \"#utility.yul\":6709:6713   */\n      0xff\n        /* \"#utility.yul\":6705:6714   */\n      not\n        /* \"#utility.yul\":6694:6703   */\n      dup4\n        /* \"#utility.yul\":6690:6715   */\n      and\n        /* \"#utility.yul\":6685:6688   */\n      dup7\n        /* \"#utility.yul\":6678:6716   */\n      mstore\n        /* \"#utility.yul\":6745:6751   */\n      dup2\n        /* \"#utility.yul\":6740:6743   */\n      dup7\n        /* \"#utility.yul\":6736:6752   */\n      add\n        /* \"#utility.yul\":6729:6752   */\n      swap4\n      pop\n        /* \"#utility.yul\":6625:6762   */\n      jump(tag_138)\n        /* \"#utility.yul\":6771:7112   */\n    tag_140:\n        /* \"#utility.yul\":6838:6876   */\n      tag_141\n        /* \"#utility.yul\":6870:6875   */\n      dup6\n        /* \"#utility.yul\":6838:6876   */\n      tag_65\n      jump\t// in\n    tag_141:\n        /* \"#utility.yul\":6898:6899   */\n      0x00\n        /* \"#utility.yul\":6912:7066   */\n    tag_142:\n        /* \"#utility.yul\":6926:6932   */\n      dup4\n        /* \"#utility.yul\":6923:6924   */\n      dup2\n        /* \"#utility.yul\":6920:6933   */\n      lt\n        /* \"#utility.yul\":6912:7066   */\n      iszero\n      tag_144\n      jumpi\n        /* \"#utility.yul\":7000:7007   */\n      dup2\n        /* \"#utility.yul\":6994:7008   */\n      sload\n        /* \"#utility.yul\":6990:6991   */\n      dup2\n        /* \"#utility.yul\":6985:6988   */\n      dup10\n        /* \"#utility.yul\":6981:6992   */\n      add\n        /* \"#utility.yul\":6974:7009   */\n      mstore\n        /* \"#utility.yul\":7050:7051   */\n      0x01\n        /* \"#utility.yul\":7041:7048   */\n      dup3\n        /* \"#utility.yul\":7037:7052   */\n      add\n        /* \"#utility.yul\":7026:7052   */\n      swap2\n      pop\n        /* \"#utility.yul\":6948:6952   */\n      0x20\n        /* \"#utility.yul\":6945:6946   */\n      dup2\n        /* \"#utility.yul\":6941:6953   */\n      add\n        /* \"#utility.yul\":6936:6953   */\n      swap1\n      pop\n        /* \"#utility.yul\":6912:7066   */\n      jump(tag_142)\n    tag_144:\n        /* \"#utility.yul\":7095:7101   */\n      dup4\n        /* \"#utility.yul\":7090:7093   */\n      dup9\n        /* \"#utility.yul\":7086:7102   */\n      add\n        /* \"#utility.yul\":7079:7102   */\n      swap6\n      pop\n        /* \"#utility.yul\":6778:7112   */\n      pop\n      pop\n        /* \"#utility.yul\":6592:7112   */\n    tag_138:\n      pop\n        /* \"#utility.yul\":6380:7118   */\n      pop\n      pop\n        /* \"#utility.yul\":6273:7118   */\n      swap3\n      swap2\n      pop\n      pop\n      jump\t// out\n        /* \"#utility.yul\":7124:7393   */\n    tag_23:\n        /* \"#utility.yul\":7253:7256   */\n      0x00\n        /* \"#utility.yul\":7275:7367   */\n      tag_146\n        /* \"#utility.yul\":7363:7366   */\n      dup3\n        /* \"#utility.yul\":7354:7360   */\n      dup5\n        /* \"#utility.yul\":7275:7367   */\n      tag_66\n      jump\t// in\n    tag_146:\n        /* \"#utility.yul\":7268:7367   */\n      swap2\n      pop\n        /* \"#utility.yul\":7384:7387   */\n      dup2\n        /* \"#utility.yul\":7377:7387   */\n      swap1\n      pop\n        /* \"#utility.yul\":7124:7393   */\n      swap3\n      swap2\n      pop\n      pop\n      jump\t// out\n\n    auxdata: 0xa2646970667358221220caebff8c8bd8d26d3eb4fb37bdf468f8a1b528d261b5405ec84eb36e5c938f7a64736f6c634300080e0033\n}\n",
				"bytecode": {
					"linkReferences": {},
					"object": "60806040526040518060400160405280600e81526020017f48656c6c6f204e65696768626f720000000000000000000000000000000000008152506000908051906020019061004f929190610062565b5034801561005c57600080fd5b50610165565b82805461006e90610134565b90600052602060002090601f01602090048101928261009057600085556100d7565b82601f106100a957805160ff19168380011785556100d7565b828001600101855582156100d7579182015b828111156100d65782518255916020019190600101906100bb565b5b5090506100e491906100e8565b5090565b5b808211156101015760008160009055506001016100e9565b5090565b7f4e487b7100000000000000000000000000000000000000000000000000000000600052602260045260246000fd5b6000600282049050600182168061014c57607f821691505b60208210810361015f5761015e610105565b5b50919050565b61066b806101746000396000f3fe608060405234801561001057600080fd5b50600436106100415760003560e01c8063046b22ac14610046578063492bfa18146100765780638218056814610094575b600080fd5b610060600480360381019061005b91906103ae565b6100b0565b60405161006d9190610412565b60405180910390f35b61007e610109565b60405161008b91906104b5565b60405180910390f35b6100ae60048036038101906100a991906103ae565b610197565b005b6000816040516020016100c39190610513565b6040516020818303038152906040528051906020012060006040516020016100eb919061061e565b60405160208183030381529060405280519060200120149050919050565b6000805461011690610559565b80601f016020809104026020016040519081016040528092919081815260200182805461014290610559565b801561018f5780601f106101645761010080835404028352916020019161018f565b820191906000526020600020905b81548152906001019060200180831161017257829003601f168201915b505050505081565b80600090805190602001906101ad9291906101b1565b5050565b8280546101bd90610559565b90600052602060002090601f0160209004810192826101df5760008555610226565b82601f106101f857805160ff1916838001178555610226565b82800160010185558215610226579182015b8281111561022557825182559160200191906001019061020a565b5b5090506102339190610237565b5090565b5b80821115610250576000816000905550600101610238565b5090565b6000604051905090565b600080fd5b600080fd5b600080fd5b600080fd5b6000601f19601f8301169050919050565b7f4e487b7100000000000000000000000000000000000000000000000000000000600052604160045260246000fd5b6102bb82610272565b810181811067ffffffffffffffff821117156102da576102d9610283565b5b80604052505050565b60006102ed610254565b90506102f982826102b2565b919050565b600067ffffffffffffffff82111561031957610318610283565b5b61032282610272565b9050602081019050919050565b82818337600083830152505050565b600061035161034c846102fe565b6102e3565b90508281526020810184848401111561036d5761036c61026d565b5b61037884828561032f565b509392505050565b600082601f83011261039557610394610268565b5b81356103a584826020860161033e565b91505092915050565b6000602082840312156103c4576103c361025e565b5b600082013567ffffffffffffffff8111156103e2576103e1610263565b5b6103ee84828501610380565b91505092915050565b60008115159050919050565b61040c816103f7565b82525050565b60006020820190506104276000830184610403565b92915050565b600081519050919050565b600082825260208201905092915050565b60005b8381101561046757808201518184015260208101905061044c565b83811115610476576000848401525b50505050565b60006104878261042d565b6104918185610438565b93506104a1818560208601610449565b6104aa81610272565b840191505092915050565b600060208201905081810360008301526104cf818461047c565b905092915050565b600081905092915050565b60006104ed8261042d565b6104f781856104d7565b9350610507818560208601610449565b80840191505092915050565b600061051f82846104e2565b915081905092915050565b7f4e487b7100000000000000000000000000000000000000000000000000000000600052602260045260246000fd5b6000600282049050600182168061057157607f821691505b6020821081036105845761058361052a565b5b50919050565b60008190508160005260206000209050919050565b600081546105ac81610559565b6105b681866104d7565b945060018216600081146105d157600181146105e257610615565b60ff19831686528186019350610615565b6105eb8561058a565b60005b8381101561060d578154818901526001820191506020810190506105ee565b838801955050505b50505092915050565b600061062a828461059f565b91508190509291505056fea2646970667358221220caebff8c8bd8d26d3eb4fb37bdf468f8a1b528d261b5405ec84eb36e5c938f7a64736f6c634300080e0033",
					"opcodes": "PUSH1 0x80 PUSH1 0x40 MSTORE PUSH1 0x40 MLOAD DUP1 PUSH1 0x40 ADD PUSH1 0x40 MSTORE DUP1 PUSH1 0xE DUP2 MSTORE PUSH1 0x20 ADD PUSH32 0x48656C6C6F204E65696768626F72000000000000000000000000000000000000 DUP2 MSTORE POP PUSH1 0x0 SWAP1 DUP1 MLOAD SWAP1 PUSH1 0x20 ADD SWAP1 PUSH2 0x4F SWAP3 SWAP2 SWAP1 PUSH2 0x62 JUMP JUMPDEST POP CALLVALUE DUP1 ISZERO PUSH2 0x5C JUMPI PUSH1 0x0 DUP1 REVERT JUMPDEST POP PUSH2 0x165 JUMP JUMPDEST DUP3 DUP1 SLOAD PUSH2 0x6E SWAP1 PUSH2 0x134 JUMP JUMPDEST SWAP1 PUSH1 0x0 MSTORE PUSH1 0x20 PUSH1 0x0 KECCAK256 SWAP1 PUSH1 0x1F ADD PUSH1 0x20 SWAP1 DIV DUP2 ADD SWAP3 DUP3 PUSH2 0x90 JUMPI PUSH1 0x0 DUP6 SSTORE PUSH2 0xD7 JUMP JUMPDEST DUP3 PUSH1 0x1F LT PUSH2 0xA9 JUMPI DUP1 MLOAD PUSH1 0xFF NOT AND DUP4 DUP1 ADD OR DUP6 SSTORE PUSH2 0xD7 JUMP JUMPDEST DUP3 DUP1 ADD PUSH1 0x1 ADD DUP6 SSTORE DUP3 ISZERO PUSH2 0xD7 JUMPI SWAP2 DUP3 ADD JUMPDEST DUP3 DUP2 GT ISZERO PUSH2 0xD6 JUMPI DUP3 MLOAD DUP3 SSTORE SWAP2 PUSH1 0x20 ADD SWAP2 SWAP1 PUSH1 0x1 ADD SWAP1 PUSH2 0xBB JUMP JUMPDEST JUMPDEST POP SWAP1 POP PUSH2 0xE4 SWAP2 SWAP1 PUSH2 0xE8 JUMP JUMPDEST POP SWAP1 JUMP JUMPDEST JUMPDEST DUP1 DUP3 GT ISZERO PUSH2 0x101 JUMPI PUSH1 0x0 DUP2 PUSH1 0x0 SWAP1 SSTORE POP PUSH1 0x1 ADD PUSH2 0xE9 JUMP JUMPDEST POP SWAP1 JUMP JUMPDEST PUSH32 0x4E487B7100000000000000000000000000000000000000000000000000000000 PUSH1 0x0 MSTORE PUSH1 0x22 PUSH1 0x4 MSTORE PUSH1 0x24 PUSH1 0x0 REVERT JUMPDEST PUSH1 0x0 PUSH1 0x2 DUP3 DIV SWAP1 POP PUSH1 0x1 DUP3 AND DUP1 PUSH2 0x14C JUMPI PUSH1 0x7F DUP3 AND SWAP2 POP JUMPDEST PUSH1 0x20 DUP3 LT DUP2 SUB PUSH2 0x15F JUMPI PUSH2 0x15E PUSH2 0x105 JUMP JUMPDEST JUMPDEST POP SWAP2 SWAP1 POP JUMP JUMPDEST PUSH2 0x66B DUP1 PUSH2 0x174 PUSH1 0x0 CODECOPY PUSH1 0x0 RETURN INVALID PUSH1 0x80 PUSH1 0x40 MSTORE CALLVALUE DUP1 ISZERO PUSH2 0x10 JUMPI PUSH1 0x0 DUP1 REVERT JUMPDEST POP PUSH1 0x4 CALLDATASIZE LT PUSH2 0x41 JUMPI PUSH1 0x0 CALLDATALOAD PUSH1 0xE0 SHR DUP1 PUSH4 0x46B22AC EQ PUSH2 0x46 JUMPI DUP1 PUSH4 0x492BFA18 EQ PUSH2 0x76 JUMPI DUP1 PUSH4 0x82180568 EQ PUSH2 0x94 JUMPI JUMPDEST PUSH1 0x0 DUP1 REVERT JUMPDEST PUSH2 0x60 PUSH1 0x4 DUP1 CALLDATASIZE SUB DUP2 ADD SWAP1 PUSH2 0x5B SWAP2 SWAP1 PUSH2 0x3AE JUMP JUMPDEST PUSH2 0xB0 JUMP JUMPDEST PUSH1 0x40 MLOAD PUSH2 0x6D SWAP2 SWAP1 PUSH2 0x412 JUMP JUMPDEST PUSH1 0x40 MLOAD DUP1 SWAP2 SUB SWAP1 RETURN JUMPDEST PUSH2 0x7E PUSH2 0x109 JUMP JUMPDEST PUSH1 0x40 MLOAD PUSH2 0x8B SWAP2 SWAP1 PUSH2 0x4B5 JUMP JUMPDEST PUSH1 0x40 MLOAD DUP1 SWAP2 SUB SWAP1 RETURN JUMPDEST PUSH2 0xAE PUSH1 0x4 DUP1 CALLDATASIZE SUB DUP2 ADD SWAP1 PUSH2 0xA9 SWAP2 SWAP1 PUSH2 0x3AE JUMP JUMPDEST PUSH2 0x197 JUMP JUMPDEST STOP JUMPDEST PUSH1 0x0 DUP2 PUSH1 0x40 MLOAD PUSH1 0x20 ADD PUSH2 0xC3 SWAP2 SWAP1 PUSH2 0x513 JUMP JUMPDEST PUSH1 0x40 MLOAD PUSH1 0x20 DUP2 DUP4 SUB SUB DUP2 MSTORE SWAP1 PUSH1 0x40 MSTORE DUP1 MLOAD SWAP1 PUSH1 0x20 ADD KECCAK256 PUSH1 0x0 PUSH1 0x40 MLOAD PUSH1 0x20 ADD PUSH2 0xEB SWAP2 SWAP1 PUSH2 0x61E JUMP JUMPDEST PUSH1 0x40 MLOAD PUSH1 0x20 DUP2 DUP4 SUB SUB DUP2 MSTORE SWAP1 PUSH1 0x40 MSTORE DUP1 MLOAD SWAP1 PUSH1 0x20 ADD KECCAK256 EQ SWAP1 POP SWAP2 SWAP1 POP JUMP JUMPDEST PUSH1 0x0 DUP1 SLOAD PUSH2 0x116 SWAP1 PUSH2 0x559 JUMP JUMPDEST DUP1 PUSH1 0x1F ADD PUSH1 0x20 DUP1 SWAP2 DIV MUL PUSH1 0x20 ADD PUSH1 0x40 MLOAD SWAP1 DUP2 ADD PUSH1 0x40 MSTORE DUP1 SWAP3 SWAP2 SWAP1 DUP2 DUP2 MSTORE PUSH1 0x20 ADD DUP3 DUP1 SLOAD PUSH2 0x142 SWAP1 PUSH2 0x559 JUMP JUMPDEST DUP1 ISZERO PUSH2 0x18F JUMPI DUP1 PUSH1 0x1F LT PUSH2 0x164 JUMPI PUSH2 0x100 DUP1 DUP4 SLOAD DIV MUL DUP4 MSTORE SWAP2 PUSH1 0x20 ADD SWAP2 PUSH2 0x18F JUMP JUMPDEST DUP3 ADD SWAP2 SWAP1 PUSH1 0x0 MSTORE PUSH1 0x20 PUSH1 0x0 KECCAK256 SWAP1 JUMPDEST DUP2 SLOAD DUP2 MSTORE SWAP1 PUSH1 0x1 ADD SWAP1 PUSH1 0x20 ADD DUP1 DUP4 GT PUSH2 0x172 JUMPI DUP3 SWAP1 SUB PUSH1 0x1F AND DUP3 ADD SWAP2 JUMPDEST POP POP POP POP POP DUP2 JUMP JUMPDEST DUP1 PUSH1 0x0 SWAP1 DUP1 MLOAD SWAP1 PUSH1 0x20 ADD SWAP1 PUSH2 0x1AD SWAP3 SWAP2 SWAP1 PUSH2 0x1B1 JUMP JUMPDEST POP POP JUMP JUMPDEST DUP3 DUP1 SLOAD PUSH2 0x1BD SWAP1 PUSH2 0x559 JUMP JUMPDEST SWAP1 PUSH1 0x0 MSTORE PUSH1 0x20 PUSH1 0x0 KECCAK256 SWAP1 PUSH1 0x1F ADD PUSH1 0x20 SWAP1 DIV DUP2 ADD SWAP3 DUP3 PUSH2 0x1DF JUMPI PUSH1 0x0 DUP6 SSTORE PUSH2 0x226 JUMP JUMPDEST DUP3 PUSH1 0x1F LT PUSH2 0x1F8 JUMPI DUP1 MLOAD PUSH1 0xFF NOT AND DUP4 DUP1 ADD OR DUP6 SSTORE PUSH2 0x226 JUMP JUMPDEST DUP3 DUP1 ADD PUSH1 0x1 ADD DUP6 SSTORE DUP3 ISZERO PUSH2 0x226 JUMPI SWAP2 DUP3 ADD JUMPDEST DUP3 DUP2 GT ISZERO PUSH2 0x225 JUMPI DUP3 MLOAD DUP3 SSTORE SWAP2 PUSH1 0x20 ADD SWAP2 SWAP1 PUSH1 0x1 ADD SWAP1 PUSH2 0x20A JUMP JUMPDEST JUMPDEST POP SWAP1 POP PUSH2 0x233 SWAP2 SWAP1 PUSH2 0x237 JUMP JUMPDEST POP SWAP1 JUMP JUMPDEST JUMPDEST DUP1 DUP3 GT ISZERO PUSH2 0x250 JUMPI PUSH1 0x0 DUP2 PUSH1 0x0 SWAP1 SSTORE POP PUSH1 0x1 ADD PUSH2 0x238 JUMP JUMPDEST POP SWAP1 JUMP JUMPDEST PUSH1 0x0 PUSH1 0x40 MLOAD SWAP1 POP SWAP1 JUMP JUMPDEST PUSH1 0x0 DUP1 REVERT JUMPDEST PUSH1 0x0 DUP1 REVERT JUMPDEST PUSH1 0x0 DUP1 REVERT JUMPDEST PUSH1 0x0 DUP1 REVERT JUMPDEST PUSH1 0x0 PUSH1 0x1F NOT PUSH1 0x1F DUP4 ADD AND SWAP1 POP SWAP2 SWAP1 POP JUMP JUMPDEST PUSH32 0x4E487B7100000000000000000000000000000000000000000000000000000000 PUSH1 0x0 MSTORE PUSH1 0x41 PUSH1 0x4 MSTORE PUSH1 0x24 PUSH1 0x0 REVERT JUMPDEST PUSH2 0x2BB DUP3 PUSH2 0x272 JUMP JUMPDEST DUP2 ADD DUP2 DUP2 LT PUSH8 0xFFFFFFFFFFFFFFFF DUP3 GT OR ISZERO PUSH2 0x2DA JUMPI PUSH2 0x2D9 PUSH2 0x283 JUMP JUMPDEST JUMPDEST DUP1 PUSH1 0x40 MSTORE POP POP POP JUMP JUMPDEST PUSH1 0x0 PUSH2 0x2ED PUSH2 0x254 JUMP JUMPDEST SWAP1 POP PUSH2 0x2F9 DUP3 DUP3 PUSH2 0x2B2 JUMP JUMPDEST SWAP2 SWAP1 POP JUMP JUMPDEST PUSH1 0x0 PUSH8 0xFFFFFFFFFFFFFFFF DUP3 GT ISZERO PUSH2 0x319 JUMPI PUSH2 0x318 PUSH2 0x283 JUMP JUMPDEST JUMPDEST PUSH2 0x322 DUP3 PUSH2 0x272 JUMP JUMPDEST SWAP1 POP PUSH1 0x20 DUP2 ADD SWAP1 POP SWAP2 SWAP1 POP JUMP JUMPDEST DUP3 DUP2 DUP4 CALLDATACOPY PUSH1 0x0 DUP4 DUP4 ADD MSTORE POP POP POP JUMP JUMPDEST PUSH1 0x0 PUSH2 0x351 PUSH2 0x34C DUP5 PUSH2 0x2FE JUMP JUMPDEST PUSH2 0x2E3 JUMP JUMPDEST SWAP1 POP DUP3 DUP2 MSTORE PUSH1 0x20 DUP2 ADD DUP5 DUP5 DUP5 ADD GT ISZERO PUSH2 0x36D JUMPI PUSH2 0x36C PUSH2 0x26D JUMP JUMPDEST JUMPDEST PUSH2 0x378 DUP5 DUP3 DUP6 PUSH2 0x32F JUMP JUMPDEST POP SWAP4 SWAP3 POP POP POP JUMP JUMPDEST PUSH1 0x0 DUP3 PUSH1 0x1F DUP4 ADD SLT PUSH2 0x395 JUMPI PUSH2 0x394 PUSH2 0x268 JUMP JUMPDEST JUMPDEST DUP2 CALLDATALOAD PUSH2 0x3A5 DUP5 DUP3 PUSH1 0x20 DUP7 ADD PUSH2 0x33E JUMP JUMPDEST SWAP2 POP POP SWAP3 SWAP2 POP POP JUMP JUMPDEST PUSH1 0x0 PUSH1 0x20 DUP3 DUP5 SUB SLT ISZERO PUSH2 0x3C4 JUMPI PUSH2 0x3C3 PUSH2 0x25E JUMP JUMPDEST JUMPDEST PUSH1 0x0 DUP3 ADD CALLDATALOAD PUSH8 0xFFFFFFFFFFFFFFFF DUP2 GT ISZERO PUSH2 0x3E2 JUMPI PUSH2 0x3E1 PUSH2 0x263 JUMP JUMPDEST JUMPDEST PUSH2 0x3EE DUP5 DUP3 DUP6 ADD PUSH2 0x380 JUMP JUMPDEST SWAP2 POP POP SWAP3 SWAP2 POP POP JUMP JUMPDEST PUSH1 0x0 DUP2 ISZERO ISZERO SWAP1 POP SWAP2 SWAP1 POP JUMP JUMPDEST PUSH2 0x40C DUP2 PUSH2 0x3F7 JUMP JUMPDEST DUP3 MSTORE POP POP JUMP JUMPDEST PUSH1 0x0 PUSH1 0x20 DUP3 ADD SWAP1 POP PUSH2 0x427 PUSH1 0x0 DUP4 ADD DUP5 PUSH2 0x403 JUMP JUMPDEST SWAP3 SWAP2 POP POP JUMP JUMPDEST PUSH1 0x0 DUP2 MLOAD SWAP1 POP SWAP2 SWAP1 POP JUMP JUMPDEST PUSH1 0x0 DUP3 DUP3 MSTORE PUSH1 0x20 DUP3 ADD SWAP1 POP SWAP3 SWAP2 POP POP JUMP JUMPDEST PUSH1 0x0 JUMPDEST DUP4 DUP2 LT ISZERO PUSH2 0x467 JUMPI DUP1 DUP3 ADD MLOAD DUP2 DUP5 ADD MSTORE PUSH1 0x20 DUP2 ADD SWAP1 POP PUSH2 0x44C JUMP JUMPDEST DUP4 DUP2 GT ISZERO PUSH2 0x476 JUMPI PUSH1 0x0 DUP5 DUP5 ADD MSTORE JUMPDEST POP POP POP POP JUMP JUMPDEST PUSH1 0x0 PUSH2 0x487 DUP3 PUSH2 0x42D JUMP JUMPDEST PUSH2 0x491 DUP2 DUP6 PUSH2 0x438 JUMP JUMPDEST SWAP4 POP PUSH2 0x4A1 DUP2 DUP6 PUSH1 0x20 DUP7 ADD PUSH2 0x449 JUMP JUMPDEST PUSH2 0x4AA DUP2 PUSH2 0x272 JUMP JUMPDEST DUP5 ADD SWAP2 POP POP SWAP3 SWAP2 POP POP JUMP JUMPDEST PUSH1 0x0 PUSH1 0x20 DUP3 ADD SWAP1 POP DUP2 DUP2 SUB PUSH1 0x0 DUP4 ADD MSTORE PUSH2 0x4CF DUP2 DUP5 PUSH2 0x47C JUMP JUMPDEST SWAP1 POP SWAP3 SWAP2 POP POP JUMP JUMPDEST PUSH1 0x0 DUP2 SWAP1 POP SWAP3 SWAP2 POP POP JUMP JUMPDEST PUSH1 0x0 PUSH2 0x4ED DUP3 PUSH2 0x42D JUMP JUMPDEST PUSH2 0x4F7 DUP2 DUP6 PUSH2 0x4D7 JUMP JUMPDEST SWAP4 POP PUSH2 0x507 DUP2 DUP6 PUSH1 0x20 DUP7 ADD PUSH2 0x449 JUMP JUMPDEST DUP1 DUP5 ADD SWAP2 POP POP SWAP3 SWAP2 POP POP JUMP JUMPDEST PUSH1 0x0 PUSH2 0x51F DUP3 DUP5 PUSH2 0x4E2 JUMP JUMPDEST SWAP2 POP DUP2 SWAP1 POP SWAP3 SWAP2 POP POP JUMP JUMPDEST PUSH32 0x4E487B7100000000000000000000000000000000000000000000000000000000 PUSH1 0x0 MSTORE PUSH1 0x22 PUSH1 0x4 MSTORE PUSH1 0x24 PUSH1 0x0 REVERT JUMPDEST PUSH1 0x0 PUSH1 0x2 DUP3 DIV SWAP1 POP PUSH1 0x1 DUP3 AND DUP1 PUSH2 0x571 JUMPI PUSH1 0x7F DUP3 AND SWAP2 POP JUMPDEST PUSH1 0x20 DUP3 LT DUP2 SUB PUSH2 0x584 JUMPI PUSH2 0x583 PUSH2 0x52A JUMP JUMPDEST JUMPDEST POP SWAP2 SWAP1 POP JUMP JUMPDEST PUSH1 0x0 DUP2 SWAP1 POP DUP2 PUSH1 0x0 MSTORE PUSH1 0x20 PUSH1 0x0 KECCAK256 SWAP1 POP SWAP2 SWAP1 POP JUMP JUMPDEST PUSH1 0x0 DUP2 SLOAD PUSH2 0x5AC DUP2 PUSH2 0x559 JUMP JUMPDEST PUSH2 0x5B6 DUP2 DUP7 PUSH2 0x4D7 JUMP JUMPDEST SWAP5 POP PUSH1 0x1 DUP3 AND PUSH1 0x0 DUP2 EQ PUSH2 0x5D1 JUMPI PUSH1 0x1 DUP2 EQ PUSH2 0x5E2 JUMPI PUSH2 0x615 JUMP JUMPDEST PUSH1 0xFF NOT DUP4 AND DUP7 MSTORE DUP2 DUP7 ADD SWAP4 POP PUSH2 0x615 JUMP JUMPDEST PUSH2 0x5EB DUP6 PUSH2 0x58A JUMP JUMPDEST PUSH1 0x0 JUMPDEST DUP4 DUP2 LT ISZERO PUSH2 0x60D JUMPI DUP2 SLOAD DUP2 DUP10 ADD MSTORE PUSH1 0x1 DUP3 ADD SWAP2 POP PUSH1 0x20 DUP2 ADD SWAP1 POP PUSH2 0x5EE JUMP JUMPDEST DUP4 DUP9 ADD SWAP6 POP POP POP JUMPDEST POP POP POP SWAP3 SWAP2 POP POP JUMP JUMPDEST PUSH1 0x0 PUSH2 0x62A DUP3 DUP5 PUSH2 0x59F JUMP JUMPDEST SWAP2 POP DUP2 SWAP1 POP SWAP3 SWAP2 POP POP JUMP INVALID LOG2 PUSH5 0x6970667358 0x22 SLT KECCAK256 0xCA 0xEB SELFDESTRUCT DUP13 DUP12 0xD8 0xD2 PUSH14 0x3EB4FB37BDF468F8A1B528D261B5 BLOCKHASH 0x5E 0xC8 0x4E 0xB3 PUSH15 0x5C938F7A64736F6C634300080E0033 "
				},
				"gasEstimates": {
					"creation": {
						"codeDepositCost": "328600",
						"executionCost": "infinite",
						"totalCost": "infinite"
					},
					"external": {
						"compareMyString(string)": "infinite",
						"myString()": "infinite",
						"setMyString(string)": "infinite"
					}
				},
				"methodIdentifiers": {
					"compareMyString(string)": "046b22ac",
					"myString()": "492bfa18",
					"setMyString(string)": "82180568"
				}
			},
			"storageLayout": {
				"storage": [
					{
						"astId": 4,
						"contract": "contracts/ExampleString.sol:ExampleString",
						"label": "myString",
						"offset": 0,
						"slot": "0",
						"type": "t_string_storage"
					}
				],
				"types": {
					"t_string_storage": {
						"encoding": "bytes",
						"label": "string",
						"numberOfBytes": "32"
					}
				}
			},
			"userdoc": {
				"kind": "user",
				"methods": {},
				"version": 1
			}
		}
	}
}